{
  "contractName": "BlockIncreaser",
  "abi": [
    {
      "inputs": [],
      "name": "blockIncrease",
      "outputs": [],
      "stateMutability": "nonpayable",
      "type": "function"
    }
  ],
  "bytecode": "0x60806040526000805534801561001457600080fd5b5060ff806100236000396000f3fe6080604052348015600f57600080fd5b506004361060285760003560e01c80630435a69e14602d575b600080fd5b60336035565b005b6000808154809291906045906056565b9190505550565b6000819050919050565b6000605f82604c565b91507fffffffffffffffffffffffffffffffffffffffffffffffffffffffffffffffff821415608f57608e609a565b5b600182019050919050565b7f4e487b7100000000000000000000000000000000000000000000000000000000600052601160045260246000fdfea2646970667358221220709f00bf2494bcf0adcc40fc00304c37c0e9951adae8beba83da19c33210674064736f6c63430008040033",
  "immutableReferences": {},
  "source": "// SPDX-License-Identifier: MIT\npragma solidity >= 0.8.4;\n\ncontract BlockIncreaser {\n  uint blocks = 0;\n\n  function blockIncrease() public {\n    blocks++;\n  }\n}\n",
  "sourcePath": "/Users/zhiwen/code/recurring/contracts/BlockIncreaser.sol",
  "compiler": {
    "name": "solc",
    "version": "0.8.4+commit.c7e474f2.Emscripten.clang"
  },
  "schemaVersion": "3.4.1",
  "updatedAt": "2021-05-14T04:42:56.713Z",
  "devdoc": {
    "kind": "dev",
    "methods": {},
    "version": 1
  },
  "userdoc": {
    "kind": "user",
    "methods": {},
    "version": 1
  }
}