{
  "contractName": "RecurringERC20",
  "abi": [
    {
      "inputs": [
        {
          "internalType": "address",
          "name": "_paymentTo",
          "type": "address"
        },
        {
          "internalType": "uint256",
          "name": "_amountOfBlocksPerPayment",
          "type": "uint256"
        },
        {
          "internalType": "uint256",
          "name": "_paymentPerInterval",
          "type": "uint256"
        },
        {
          "internalType": "address",
          "name": "_tokenAddress",
          "type": "address"
        }
      ],
      "stateMutability": "nonpayable",
      "type": "constructor"
    },
    {
      "anonymous": false,
      "inputs": [
        {
          "indexed": false,
          "internalType": "uint256",
          "name": "_blockNumber",
          "type": "uint256"
        }
      ],
      "name": "BlockNumber",
      "type": "event"
    },
    {
      "anonymous": false,
      "inputs": [
        {
          "indexed": false,
          "internalType": "bool",
          "name": "_true",
          "type": "bool"
        }
      ],
      "name": "Here",
      "type": "event"
    },
    {
      "inputs": [],
      "name": "amountOfBlocksPerPayment",
      "outputs": [
        {
          "internalType": "uint256",
          "name": "",
          "type": "uint256"
        }
      ],
      "stateMutability": "view",
      "type": "function"
    },
    {
      "inputs": [],
      "name": "lastBlockNumberPaid",
      "outputs": [
        {
          "internalType": "uint256",
          "name": "",
          "type": "uint256"
        }
      ],
      "stateMutability": "view",
      "type": "function"
    },
    {
      "inputs": [],
      "name": "lastCyclePaid",
      "outputs": [
        {
          "internalType": "uint256",
          "name": "",
          "type": "uint256"
        }
      ],
      "stateMutability": "view",
      "type": "function"
    },
    {
      "inputs": [],
      "name": "numberOfPayments",
      "outputs": [
        {
          "internalType": "uint256",
          "name": "",
          "type": "uint256"
        }
      ],
      "stateMutability": "view",
      "type": "function"
    },
    {
      "inputs": [],
      "name": "owner",
      "outputs": [
        {
          "internalType": "address",
          "name": "",
          "type": "address"
        }
      ],
      "stateMutability": "view",
      "type": "function"
    },
    {
      "inputs": [],
      "name": "paymentPerInterval",
      "outputs": [
        {
          "internalType": "uint256",
          "name": "",
          "type": "uint256"
        }
      ],
      "stateMutability": "view",
      "type": "function"
    },
    {
      "inputs": [],
      "name": "tokenAddress",
      "outputs": [
        {
          "internalType": "address",
          "name": "",
          "type": "address"
        }
      ],
      "stateMutability": "view",
      "type": "function"
    },
    {
      "inputs": [],
      "name": "getPayment",
      "outputs": [],
      "stateMutability": "payable",
      "type": "function"
    }
  ],
  "bytecode": "0x608060405234801561001057600080fd5b506040516109c53803806109c58339818101604052810190610032919061013c565b336000806101000a81548173ffffffffffffffffffffffffffffffffffffffff021916908373ffffffffffffffffffffffffffffffffffffffff16021790555083600160006101000a81548173ffffffffffffffffffffffffffffffffffffffff021916908373ffffffffffffffffffffffffffffffffffffffff16021790555043600681905550826003819055508160048190555080600760006101000a81548173ffffffffffffffffffffffffffffffffffffffff021916908373ffffffffffffffffffffffffffffffffffffffff16021790555050505050610209565b600081519050610121816101db565b92915050565b600081519050610136816101f2565b92915050565b6000806000806080858703121561015257600080fd5b600061016087828801610112565b945050602061017187828801610127565b935050604061018287828801610127565b925050606061019387828801610112565b91505092959194509250565b60006101aa826101b1565b9050919050565b600073ffffffffffffffffffffffffffffffffffffffff82169050919050565b6000819050919050565b6101e48161019f565b81146101ef57600080fd5b50565b6101fb816101d1565b811461020657600080fd5b50565b6107ad806102186000396000f3fe60806040526004361061007b5760003560e01c80639d76ea581161004e5780639d76ea581461012c578063a8ab079914610157578063b319ebbe14610182578063bb328a7d146101ad5761007b565b80630eb65de91461008057806326191c35146100ab578063422f963c146100d65780638da5cb5b14610101575b600080fd5b34801561008c57600080fd5b506100956101b7565b6040516100a2919061062f565b60405180910390f35b3480156100b757600080fd5b506100c06101bd565b6040516100cd919061062f565b60405180910390f35b3480156100e257600080fd5b506100eb6101c3565b6040516100f8919061062f565b60405180910390f35b34801561010d57600080fd5b506101166101c9565b60405161012391906105c2565b60405180910390f35b34801561013857600080fd5b506101416101ed565b60405161014e91906105c2565b60405180910390f35b34801561016357600080fd5b5061016c610213565b604051610179919061062f565b60405180910390f35b34801561018e57600080fd5b50610197610219565b6040516101a4919061062f565b60405180910390f35b6101b561021f565b005b60045481565b60025481565b60055481565b60008054906101000a900473ffffffffffffffffffffffffffffffffffffffff1681565b600760009054906101000a900473ffffffffffffffffffffffffffffffffffffffff1681565b60065481565b60035481565b600160009054906101000a900473ffffffffffffffffffffffffffffffffffffffff1673ffffffffffffffffffffffffffffffffffffffff163373ffffffffffffffffffffffffffffffffffffffff161415610555576000806000807fc04eeb4cfe0799838abac8fa75bca975bff679179886c80c84a7b93229a1a6186006546040516102ac919061062f565b60405180910390a17fc04eeb4cfe0799838abac8fa75bca975bff679179886c80c84a7b93229a1a618436040516102e3919061062f565b60405180910390a17f1d1f76573433c35eeecdbf7d40cb5b0da3dfa1bb88c73ff329680a0ac0c6198d600160405161031b9190610614565b60405180910390a1600060065490505b43811161043157838061033d906106e8565b945050600354841061041e577f1d1f76573433c35eeecdbf7d40cb5b0da3dfa1bb88c73ff329680a0ac0c6198d60016040516103799190610614565b60405180910390a160001515851515141561039357600194505b600093506003546006546103a7919061064a565b6006819055507fc04eeb4cfe0799838abac8fa75bca975bff679179886c80c84a7b93229a1a6186006546040516103de919061062f565b60405180910390a1600454836103f4919061064a565b9250600182610403919061064a565b915060056000815480929190610418906106e8565b91905055505b8080610429906106e8565b91505061032b565b50600115158415151415610550577f1d1f76573433c35eeecdbf7d40cb5b0da3dfa1bb88c73ff329680a0ac0c6198d600160405161046f9190610614565b60405180910390a16000600760009054906101000a900473ffffffffffffffffffffffffffffffffffffffff1690508073ffffffffffffffffffffffffffffffffffffffff166323b872dd60008054906101000a900473ffffffffffffffffffffffffffffffffffffffff1633866040518463ffffffff1660e01b81526004016104fb939291906105dd565b602060405180830381600087803b15801561051557600080fd5b505af1158015610529573d6000803e3d6000fd5b505050506040513d601f19601f8201168201806040525081019061054d919061056c565b50505b505050505b565b60008151905061056681610760565b92915050565b60006020828403121561057e57600080fd5b600061058c84828501610557565b91505092915050565b61059e816106a0565b82525050565b6105ad816106b2565b82525050565b6105bc816106de565b82525050565b60006020820190506105d76000830184610595565b92915050565b60006060820190506105f26000830186610595565b6105ff6020830185610595565b61060c60408301846105b3565b949350505050565b600060208201905061062960008301846105a4565b92915050565b600060208201905061064460008301846105b3565b92915050565b6000610655826106de565b9150610660836106de565b9250827fffffffffffffffffffffffffffffffffffffffffffffffffffffffffffffffff0382111561069557610694610731565b5b828201905092915050565b60006106ab826106be565b9050919050565b60008115159050919050565b600073ffffffffffffffffffffffffffffffffffffffff82169050919050565b6000819050919050565b60006106f3826106de565b91507fffffffffffffffffffffffffffffffffffffffffffffffffffffffffffffffff82141561072657610725610731565b5b600182019050919050565b7f4e487b7100000000000000000000000000000000000000000000000000000000600052601160045260246000fd5b610769816106b2565b811461077457600080fd5b5056fea264697066735822122081a98f5d77408a98cc94bcd119b268a35f5e66271d370276fa7009e76dd8a03764736f6c63430008040033",
  "immutableReferences": {},
  "source": "// SPDX-License-Identifier: MIT\npragma solidity 0.8.4;\n\nimport \"./UseableToken.sol\";\n\ncontract RecurringERC20 {\n  address public owner;\n  address paymentTo;\n  uint public lastBlockNumberPaid;\n  uint public amountOfBlocksPerPayment;\n  uint public paymentPerInterval;\n  uint public numberOfPayments;\n  uint public lastCyclePaid;\n  address public tokenAddress;\n\n  event BlockNumber(\n    uint _blockNumber\n  );\n\n  event Here(\n    bool _true\n  );\n\n  modifier receiverOnly() {\n    if (msg.sender == paymentTo) _;\n  }\n\n  // @param _paymentTo Address of the receiver of the payments\n  // @param _amountOfBlocksPerPayment Amount of blocks needed to pass for each payment\n  // @param _paymentPerInterval The amount in tokens for each payment cycle\n  // @param _tokenAddress The ERC20 token contract address used for payment\n  constructor(address _paymentTo,\n    uint _amountOfBlocksPerPayment,\n    uint _paymentPerInterval,\n    address _tokenAddress\n    )\n  {\n      owner = msg.sender;\n      paymentTo = _paymentTo;\n      lastCyclePaid = block.number;\n      amountOfBlocksPerPayment = _amountOfBlocksPerPayment;\n      paymentPerInterval = _paymentPerInterval;\n      tokenAddress = _tokenAddress;\n  }\n\n  // If the receiver calls this function after the block number exceeds the\n  // the block last cycle paid block + amount of blocks per payment,\n  // they can withdraw Ether\n  function getPayment() public payable receiverOnly {\n    bool hasInterval = false;\n    uint blocks = 0;\n    uint paymentAmount = 0;\n    uint numberOfIntervals = 0;\n    emit BlockNumber(lastCyclePaid);\n    emit BlockNumber(block.number);\n    emit Here(true);\n\n    // For loops thru the last cycle paid to the current block number for multiple payments\n    for (uint i = lastCyclePaid; i <= block.number; i++) {\n      blocks++;\n\n      if (blocks >= amountOfBlocksPerPayment) {\n        emit Here(true);\n        if (hasInterval == false) {\n          hasInterval = true;\n        }\n        blocks = 0;\n        lastCyclePaid = lastCyclePaid + amountOfBlocksPerPayment;\n        emit BlockNumber(lastCyclePaid);\n        paymentAmount = paymentAmount + paymentPerInterval;\n        numberOfIntervals = numberOfIntervals + 1;\n        numberOfPayments++;\n      }\n    }\n\n    if (hasInterval == true) {\n      emit Here(true);\n\n      Token c = Token(tokenAddress);\n      c.transferFrom(owner, msg.sender, paymentAmount);\n    }\n  }\n}\n",
  "sourcePath": "/Users/zhiwen/code/recurring/contracts/RecurringERC20.sol",
  "compiler": {
    "name": "solc",
    "version": "0.8.4+commit.c7e474f2.Emscripten.clang"
  },
  "schemaVersion": "3.4.1",
  "updatedAt": "2021-05-14T04:42:56.715Z",
  "devdoc": {
    "kind": "dev",
    "methods": {},
    "version": 1
  },
  "userdoc": {
    "kind": "user",
    "methods": {},
    "version": 1
  }
}