{
  "contractName": "RecurringEther",
  "abi": [
    {
      "inputs": [
        {
          "internalType": "address",
          "name": "_paymentTo",
          "type": "address"
        },
        {
          "internalType": "uint256",
          "name": "_amountOfBlocksPerPayment",
          "type": "uint256"
        },
        {
          "internalType": "uint256",
          "name": "_paymentPerInterval",
          "type": "uint256"
        }
      ],
      "stateMutability": "nonpayable",
      "type": "constructor"
    },
    {
      "anonymous": false,
      "inputs": [
        {
          "indexed": false,
          "internalType": "uint256",
          "name": "_blockNumber",
          "type": "uint256"
        }
      ],
      "name": "BlockNumber",
      "type": "event"
    },
    {
      "anonymous": false,
      "inputs": [
        {
          "indexed": false,
          "internalType": "bool",
          "name": "_true",
          "type": "bool"
        }
      ],
      "name": "Here",
      "type": "event"
    },
    {
      "inputs": [],
      "name": "amountOfBlocksPerPayment",
      "outputs": [
        {
          "internalType": "uint256",
          "name": "",
          "type": "uint256"
        }
      ],
      "stateMutability": "view",
      "type": "function"
    },
    {
      "inputs": [],
      "name": "amountStored",
      "outputs": [
        {
          "internalType": "uint256",
          "name": "",
          "type": "uint256"
        }
      ],
      "stateMutability": "view",
      "type": "function"
    },
    {
      "inputs": [],
      "name": "lastBlockNumberPaid",
      "outputs": [
        {
          "internalType": "uint256",
          "name": "",
          "type": "uint256"
        }
      ],
      "stateMutability": "view",
      "type": "function"
    },
    {
      "inputs": [],
      "name": "lastCyclePaid",
      "outputs": [
        {
          "internalType": "uint256",
          "name": "",
          "type": "uint256"
        }
      ],
      "stateMutability": "view",
      "type": "function"
    },
    {
      "inputs": [],
      "name": "numberOfPayments",
      "outputs": [
        {
          "internalType": "uint256",
          "name": "",
          "type": "uint256"
        }
      ],
      "stateMutability": "view",
      "type": "function"
    },
    {
      "inputs": [],
      "name": "owner",
      "outputs": [
        {
          "internalType": "address",
          "name": "",
          "type": "address"
        }
      ],
      "stateMutability": "view",
      "type": "function"
    },
    {
      "inputs": [],
      "name": "paymentPerInterval",
      "outputs": [
        {
          "internalType": "uint256",
          "name": "",
          "type": "uint256"
        }
      ],
      "stateMutability": "view",
      "type": "function"
    },
    {
      "inputs": [],
      "name": "paymentTo",
      "outputs": [
        {
          "internalType": "address",
          "name": "",
          "type": "address"
        }
      ],
      "stateMutability": "view",
      "type": "function"
    },
    {
      "inputs": [],
      "name": "addFunds",
      "outputs": [],
      "stateMutability": "payable",
      "type": "function"
    },
    {
      "inputs": [
        {
          "internalType": "uint256",
          "name": "_amount",
          "type": "uint256"
        }
      ],
      "name": "withdrawFunds",
      "outputs": [],
      "stateMutability": "payable",
      "type": "function"
    },
    {
      "inputs": [],
      "name": "getPayment",
      "outputs": [],
      "stateMutability": "payable",
      "type": "function"
    }
  ],
  "bytecode": "0x608060405234801561001057600080fd5b50604051610970380380610970833981810160405281019061003291906100fa565b336000806101000a81548173ffffffffffffffffffffffffffffffffffffffff021916908373ffffffffffffffffffffffffffffffffffffffff16021790555082600260006101000a81548173ffffffffffffffffffffffffffffffffffffffff021916908373ffffffffffffffffffffffffffffffffffffffff1602179055504360078190555081600481905550806005819055505050506101b3565b6000815190506100df81610185565b92915050565b6000815190506100f48161019c565b92915050565b60008060006060848603121561010f57600080fd5b600061011d868287016100d0565b935050602061012e868287016100e5565b925050604061013f868287016100e5565b9150509250925092565b60006101548261015b565b9050919050565b600073ffffffffffffffffffffffffffffffffffffffff82169050919050565b6000819050919050565b61018e81610149565b811461019957600080fd5b50565b6101a58161017b565b81146101b057600080fd5b50565b6107ae806101c26000396000f3fe60806040526004361061009c5760003560e01c80638da5cb5b116100645780638da5cb5b14610169578063a26759cb14610194578063a8ab07991461019e578063b319ebbe146101c9578063bb328a7d146101f4578063be827b50146101fe5761009c565b8063072f7fa3146100a15780630eb65de9146100cc578063155dd5ee146100f757806326191c3514610113578063422f963c1461013e575b600080fd5b3480156100ad57600080fd5b506100b6610229565b6040516100c391906105c6565b60405180910390f35b3480156100d857600080fd5b506100e161024f565b6040516100ee91906105fc565b60405180910390f35b610111600480360381019061010c9190610570565b610255565b005b34801561011f57600080fd5b506101286102b3565b60405161013591906105fc565b60405180910390f35b34801561014a57600080fd5b506101536102b9565b60405161016091906105fc565b60405180910390f35b34801561017557600080fd5b5061017e6102bf565b60405161018b91906105c6565b60405180910390f35b61019c6102e3565b005b3480156101aa57600080fd5b506101b36102fe565b6040516101c091906105fc565b60405180910390f35b3480156101d557600080fd5b506101de610304565b6040516101eb91906105fc565b60405180910390f35b6101fc61030a565b005b34801561020a57600080fd5b50610213610555565b60405161022091906105fc565b60405180910390f35b600260009054906101000a900473ffffffffffffffffffffffffffffffffffffffff1681565b60055481565b3373ffffffffffffffffffffffffffffffffffffffff166108fc829081150290604051600060405180830381858888f1935050505015801561029b573d6000803e3d6000fd5b50806001546102aa919061066d565b60018190555050565b60035481565b60065481565b60008054906101000a900473ffffffffffffffffffffffffffffffffffffffff1681565b34600160008282546102f59190610617565b92505081905550565b60075481565b60045481565b600260009054906101000a900473ffffffffffffffffffffffffffffffffffffffff1673ffffffffffffffffffffffffffffffffffffffff163373ffffffffffffffffffffffffffffffffffffffff161415610553576000806000807fc04eeb4cfe0799838abac8fa75bca975bff679179886c80c84a7b93229a1a61860075460405161039791906105fc565b60405180910390a17fc04eeb4cfe0799838abac8fa75bca975bff679179886c80c84a7b93229a1a618436040516103ce91906105fc565b60405180910390a1600060075490505b4381116104e45783806103f0906106e9565b94505060045484106104d1577f1d1f76573433c35eeecdbf7d40cb5b0da3dfa1bb88c73ff329680a0ac0c6198d600160405161042c91906105e1565b60405180910390a160001515851515141561044657600194505b6000935060045460075461045a9190610617565b6007819055507fc04eeb4cfe0799838abac8fa75bca975bff679179886c80c84a7b93229a1a61860075460405161049191906105fc565b60405180910390a1600554836104a79190610617565b92506001826104b69190610617565b9150600660008154809291906104cb906106e9565b91905055505b80806104dc906106e9565b9150506103de565b5060011515841515141561054e573373ffffffffffffffffffffffffffffffffffffffff166108fc839081150290604051600060405180830381858888f19350505050158015610538573d6000803e3d6000fd5b5081600154610547919061066d565b6001819055505b505050505b565b60015481565b60008135905061056a81610761565b92915050565b60006020828403121561058257600080fd5b60006105908482850161055b565b91505092915050565b6105a2816106a1565b82525050565b6105b1816106b3565b82525050565b6105c0816106df565b82525050565b60006020820190506105db6000830184610599565b92915050565b60006020820190506105f660008301846105a8565b92915050565b600060208201905061061160008301846105b7565b92915050565b6000610622826106df565b915061062d836106df565b9250827fffffffffffffffffffffffffffffffffffffffffffffffffffffffffffffffff0382111561066257610661610732565b5b828201905092915050565b6000610678826106df565b9150610683836106df565b92508282101561069657610695610732565b5b828203905092915050565b60006106ac826106bf565b9050919050565b60008115159050919050565b600073ffffffffffffffffffffffffffffffffffffffff82169050919050565b6000819050919050565b60006106f4826106df565b91507fffffffffffffffffffffffffffffffffffffffffffffffffffffffffffffffff82141561072757610726610732565b5b600182019050919050565b7f4e487b7100000000000000000000000000000000000000000000000000000000600052601160045260246000fd5b61076a816106df565b811461077557600080fd5b5056fea2646970667358221220a23747c64a9e99fbf56fe43115bf6f49cb070c5c950f86d7f05d3b2c16c087ba64736f6c63430008040033",
  "immutableReferences": {},
  "source": "// SPDX-License-Identifier: MIT\npragma solidity 0.8.4;\n\ncontract RecurringEther {\n  address public owner;\n  uint public amountStored;\n  address public paymentTo;\n  uint public lastBlockNumberPaid;\n  uint public amountOfBlocksPerPayment;\n  uint public paymentPerInterval;\n  uint public numberOfPayments;\n  uint public lastCyclePaid;\n\n  event BlockNumber(\n    uint _blockNumber\n  );\n\n  event Here(\n    bool _true\n  );\n\n  modifier receiverOnly() {\n    if (msg.sender == paymentTo) _;\n  }\n\n  // @param _paymentTo Address of the receiver of the payments\n  // @param _amountOfBlocksPerPayment Amount of blocks needed to pass for each payment\n  // @param {_paymentPerInterval} The amount in wei for each payment cycle\n  constructor(address _paymentTo,\n    uint _amountOfBlocksPerPayment,\n    uint _paymentPerInterval)\n  {\n      owner = msg.sender;\n      paymentTo = _paymentTo;\n      lastCyclePaid = block.number;\n      amountOfBlocksPerPayment = _amountOfBlocksPerPayment;\n      paymentPerInterval = _paymentPerInterval;\n  }\n\n  function addFunds() payable public {\n    amountStored += msg.value;\n  }\n\n  function withdrawFunds(uint _amount) payable public {\n    payable(msg.sender).transfer(_amount);\n    amountStored = amountStored - _amount;\n  }\n\n  // If the receiver calls this function after the block number exceeds the\n  // the block last cycle paid block + amount of blocks per payment,\n  // they can withdraw Ether\n  function getPayment() public payable receiverOnly {\n    bool hasInterval = false;\n    uint blocks = 0;\n    uint paymentAmount = 0;\n    uint numberOfIntervals = 0;\n    emit BlockNumber(lastCyclePaid);\n    emit BlockNumber(block.number);\n\n    // For loops thru the last cycle paid to the current block number for multiple payments\n    for (uint i = lastCyclePaid; i <= block.number; i++) {\n      blocks++;\n\n      if (blocks >= amountOfBlocksPerPayment) {\n        emit Here(true);\n        if (hasInterval == false) {\n          hasInterval = true;\n        }\n        blocks = 0;\n        lastCyclePaid = lastCyclePaid + amountOfBlocksPerPayment;\n        emit BlockNumber(lastCyclePaid);\n        paymentAmount = paymentAmount + paymentPerInterval;\n        numberOfIntervals = numberOfIntervals + 1;\n        numberOfPayments++;\n      }\n    }\n\n    if (hasInterval == true) {\n      paymentAmount = paymentAmount;\n      payable(msg.sender).transfer(paymentAmount);\n      amountStored = amountStored - paymentAmount;\n    }\n  }\n}\n",
  "sourcePath": "/Users/zhiwen/code/recurring/contracts/RecurringEther.sol",
  "compiler": {
    "name": "solc",
    "version": "0.8.4+commit.c7e474f2.Emscripten.clang"
  },
  "schemaVersion": "3.4.1",
  "updatedAt": "2021-05-14T04:42:56.750Z",
  "devdoc": {
    "kind": "dev",
    "methods": {},
    "version": 1
  },
  "userdoc": {
    "kind": "user",
    "methods": {},
    "version": 1
  }
}